{
  "_format": "hh-sol-artifact-1",
  "contractName": "MooToken",
  "sourceName": "contracts/MooToken.sol",
  "abi": [
    {
      "inputs": [
        {
          "internalType": "address",
          "name": "minter",
          "type": "address"
        },
        {
          "internalType": "string",
          "name": "baseURI",
          "type": "string"
        }
      ],
      "stateMutability": "nonpayable",
      "type": "constructor"
    },
    {
      "anonymous": false,
      "inputs": [
        {
          "indexed": true,
          "internalType": "address",
          "name": "owner",
          "type": "address"
        },
        {
          "indexed": true,
          "internalType": "address",
          "name": "approved",
          "type": "address"
        },
        {
          "indexed": true,
          "internalType": "uint256",
          "name": "tokenId",
          "type": "uint256"
        }
      ],
      "name": "Approval",
      "type": "event"
    },
    {
      "anonymous": false,
      "inputs": [
        {
          "indexed": true,
          "internalType": "address",
          "name": "owner",
          "type": "address"
        },
        {
          "indexed": true,
          "internalType": "address",
          "name": "operator",
          "type": "address"
        },
        {
          "indexed": false,
          "internalType": "bool",
          "name": "approved",
          "type": "bool"
        }
      ],
      "name": "ApprovalForAll",
      "type": "event"
    },
    {
      "anonymous": false,
      "inputs": [
        {
          "indexed": true,
          "internalType": "address",
          "name": "previousOwner",
          "type": "address"
        },
        {
          "indexed": true,
          "internalType": "address",
          "name": "newOwner",
          "type": "address"
        }
      ],
      "name": "OwnershipTransferred",
      "type": "event"
    },
    {
      "anonymous": false,
      "inputs": [
        {
          "indexed": true,
          "internalType": "bytes32",
          "name": "role",
          "type": "bytes32"
        },
        {
          "indexed": true,
          "internalType": "bytes32",
          "name": "previousAdminRole",
          "type": "bytes32"
        },
        {
          "indexed": true,
          "internalType": "bytes32",
          "name": "newAdminRole",
          "type": "bytes32"
        }
      ],
      "name": "RoleAdminChanged",
      "type": "event"
    },
    {
      "anonymous": false,
      "inputs": [
        {
          "indexed": true,
          "internalType": "bytes32",
          "name": "role",
          "type": "bytes32"
        },
        {
          "indexed": true,
          "internalType": "address",
          "name": "account",
          "type": "address"
        },
        {
          "indexed": true,
          "internalType": "address",
          "name": "sender",
          "type": "address"
        }
      ],
      "name": "RoleGranted",
      "type": "event"
    },
    {
      "anonymous": false,
      "inputs": [
        {
          "indexed": true,
          "internalType": "bytes32",
          "name": "role",
          "type": "bytes32"
        },
        {
          "indexed": true,
          "internalType": "address",
          "name": "account",
          "type": "address"
        },
        {
          "indexed": true,
          "internalType": "address",
          "name": "sender",
          "type": "address"
        }
      ],
      "name": "RoleRevoked",
      "type": "event"
    },
    {
      "anonymous": false,
      "inputs": [
        {
          "indexed": false,
          "internalType": "address",
          "name": "from",
          "type": "address"
        },
        {
          "indexed": false,
          "internalType": "uint256",
          "name": "tokenId",
          "type": "uint256"
        },
        {
          "indexed": false,
          "internalType": "uint256",
          "name": "userBalance",
          "type": "uint256"
        },
        {
          "indexed": false,
          "internalType": "string",
          "name": "tokenURI",
          "type": "string"
        }
      ],
      "name": "TokenMinted",
      "type": "event"
    },
    {
      "anonymous": false,
      "inputs": [
        {
          "indexed": false,
          "internalType": "address",
          "name": "from",
          "type": "address"
        },
        {
          "indexed": false,
          "internalType": "uint256",
          "name": "tokenId",
          "type": "uint256"
        }
      ],
      "name": "TokenStaked",
      "type": "event"
    },
    {
      "anonymous": false,
      "inputs": [
        {
          "indexed": false,
          "internalType": "address",
          "name": "from",
          "type": "address"
        },
        {
          "indexed": false,
          "internalType": "uint256",
          "name": "tokenId",
          "type": "uint256"
        }
      ],
      "name": "TokenUnStaked",
      "type": "event"
    },
    {
      "anonymous": false,
      "inputs": [
        {
          "indexed": false,
          "internalType": "address",
          "name": "from",
          "type": "address"
        },
        {
          "indexed": false,
          "internalType": "uint256",
          "name": "tokenId",
          "type": "uint256"
        },
        {
          "indexed": false,
          "internalType": "uint256",
          "name": "usedAmount",
          "type": "uint256"
        }
      ],
      "name": "TokenUsed",
      "type": "event"
    },
    {
      "anonymous": false,
      "inputs": [
        {
          "indexed": true,
          "internalType": "address",
          "name": "from",
          "type": "address"
        },
        {
          "indexed": true,
          "internalType": "address",
          "name": "to",
          "type": "address"
        },
        {
          "indexed": true,
          "internalType": "uint256",
          "name": "tokenId",
          "type": "uint256"
        }
      ],
      "name": "Transfer",
      "type": "event"
    },
    {
      "inputs": [],
      "name": "DEFAULT_ADMIN_ROLE",
      "outputs": [
        {
          "internalType": "bytes32",
          "name": "",
          "type": "bytes32"
        }
      ],
      "stateMutability": "view",
      "type": "function"
    },
    {
      "inputs": [],
      "name": "MINTER_ROLE",
      "outputs": [
        {
          "internalType": "bytes32",
          "name": "",
          "type": "bytes32"
        }
      ],
      "stateMutability": "view",
      "type": "function"
    },
    {
      "inputs": [
        {
          "internalType": "address",
          "name": "to",
          "type": "address"
        },
        {
          "internalType": "uint256",
          "name": "tokenId",
          "type": "uint256"
        }
      ],
      "name": "approve",
      "outputs": [],
      "stateMutability": "nonpayable",
      "type": "function"
    },
    {
      "inputs": [
        {
          "internalType": "address",
          "name": "owner",
          "type": "address"
        }
      ],
      "name": "balanceOf",
      "outputs": [
        {
          "internalType": "uint256",
          "name": "",
          "type": "uint256"
        }
      ],
      "stateMutability": "view",
      "type": "function"
    },
    {
      "inputs": [
        {
          "internalType": "uint256",
          "name": "tokenId",
          "type": "uint256"
        }
      ],
      "name": "getApproved",
      "outputs": [
        {
          "internalType": "address",
          "name": "",
          "type": "address"
        }
      ],
      "stateMutability": "view",
      "type": "function"
    },
    {
      "inputs": [
        {
          "internalType": "address",
          "name": "member",
          "type": "address"
        },
        {
          "internalType": "uint256",
          "name": "tokenId",
          "type": "uint256"
        }
      ],
      "name": "getBalance",
      "outputs": [
        {
          "internalType": "uint256",
          "name": "",
          "type": "uint256"
        }
      ],
      "stateMutability": "view",
      "type": "function"
    },
    {
      "inputs": [],
      "name": "getCurrentTokenId",
      "outputs": [
        {
          "internalType": "uint256",
          "name": "",
          "type": "uint256"
        }
      ],
      "stateMutability": "view",
      "type": "function"
    },
    {
      "inputs": [
        {
          "internalType": "bytes32",
          "name": "role",
          "type": "bytes32"
        }
      ],
      "name": "getRoleAdmin",
      "outputs": [
        {
          "internalType": "bytes32",
          "name": "",
          "type": "bytes32"
        }
      ],
      "stateMutability": "view",
      "type": "function"
    },
    {
      "inputs": [
        {
          "internalType": "address",
          "name": "member",
          "type": "address"
        },
        {
          "internalType": "uint256",
          "name": "tokenId",
          "type": "uint256"
        }
      ],
      "name": "getStake",
      "outputs": [
        {
          "internalType": "bool",
          "name": "",
          "type": "bool"
        }
      ],
      "stateMutability": "view",
      "type": "function"
    },
    {
      "inputs": [
        {
          "internalType": "address",
          "name": "member",
          "type": "address"
        },
        {
          "internalType": "uint256",
          "name": "tokenId",
          "type": "uint256"
        }
      ],
      "name": "getUsed",
      "outputs": [
        {
          "internalType": "uint256",
          "name": "",
          "type": "uint256"
        }
      ],
      "stateMutability": "view",
      "type": "function"
    },
    {
      "inputs": [
        {
          "internalType": "bytes32",
          "name": "role",
          "type": "bytes32"
        },
        {
          "internalType": "address",
          "name": "account",
          "type": "address"
        }
      ],
      "name": "grantRole",
      "outputs": [],
      "stateMutability": "nonpayable",
      "type": "function"
    },
    {
      "inputs": [
        {
          "internalType": "bytes32",
          "name": "role",
          "type": "bytes32"
        },
        {
          "internalType": "address",
          "name": "account",
          "type": "address"
        }
      ],
      "name": "hasRole",
      "outputs": [
        {
          "internalType": "bool",
          "name": "",
          "type": "bool"
        }
      ],
      "stateMutability": "view",
      "type": "function"
    },
    {
      "inputs": [
        {
          "internalType": "address",
          "name": "owner",
          "type": "address"
        },
        {
          "internalType": "address",
          "name": "operator",
          "type": "address"
        }
      ],
      "name": "isApprovedForAll",
      "outputs": [
        {
          "internalType": "bool",
          "name": "",
          "type": "bool"
        }
      ],
      "stateMutability": "view",
      "type": "function"
    },
    {
      "inputs": [
        {
          "internalType": "address",
          "name": "owner",
          "type": "address"
        },
        {
          "internalType": "uint256",
          "name": "userBalance",
          "type": "uint256"
        },
        {
          "internalType": "string",
          "name": "metadataURI",
          "type": "string"
        }
      ],
      "name": "mint",
      "outputs": [],
      "stateMutability": "nonpayable",
      "type": "function"
    },
    {
      "inputs": [],
      "name": "name",
      "outputs": [
        {
          "internalType": "string",
          "name": "",
          "type": "string"
        }
      ],
      "stateMutability": "view",
      "type": "function"
    },
    {
      "inputs": [],
      "name": "owner",
      "outputs": [
        {
          "internalType": "address",
          "name": "",
          "type": "address"
        }
      ],
      "stateMutability": "view",
      "type": "function"
    },
    {
      "inputs": [
        {
          "internalType": "uint256",
          "name": "tokenId",
          "type": "uint256"
        }
      ],
      "name": "ownerOf",
      "outputs": [
        {
          "internalType": "address",
          "name": "",
          "type": "address"
        }
      ],
      "stateMutability": "view",
      "type": "function"
    },
    {
      "inputs": [],
      "name": "renounceOwnership",
      "outputs": [],
      "stateMutability": "nonpayable",
      "type": "function"
    },
    {
      "inputs": [
        {
          "internalType": "bytes32",
          "name": "role",
          "type": "bytes32"
        },
        {
          "internalType": "address",
          "name": "account",
          "type": "address"
        }
      ],
      "name": "renounceRole",
      "outputs": [],
      "stateMutability": "nonpayable",
      "type": "function"
    },
    {
      "inputs": [
        {
          "internalType": "bytes32",
          "name": "role",
          "type": "bytes32"
        },
        {
          "internalType": "address",
          "name": "account",
          "type": "address"
        }
      ],
      "name": "revokeRole",
      "outputs": [],
      "stateMutability": "nonpayable",
      "type": "function"
    },
    {
      "inputs": [
        {
          "internalType": "address",
          "name": "from",
          "type": "address"
        },
        {
          "internalType": "address",
          "name": "to",
          "type": "address"
        },
        {
          "internalType": "uint256",
          "name": "tokenId",
          "type": "uint256"
        }
      ],
      "name": "safeTransferFrom",
      "outputs": [],
      "stateMutability": "nonpayable",
      "type": "function"
    },
    {
      "inputs": [
        {
          "internalType": "address",
          "name": "from",
          "type": "address"
        },
        {
          "internalType": "address",
          "name": "to",
          "type": "address"
        },
        {
          "internalType": "uint256",
          "name": "tokenId",
          "type": "uint256"
        },
        {
          "internalType": "bytes",
          "name": "_data",
          "type": "bytes"
        }
      ],
      "name": "safeTransferFrom",
      "outputs": [],
      "stateMutability": "nonpayable",
      "type": "function"
    },
    {
      "inputs": [
        {
          "internalType": "address",
          "name": "operator",
          "type": "address"
        },
        {
          "internalType": "bool",
          "name": "approved",
          "type": "bool"
        }
      ],
      "name": "setApprovalForAll",
      "outputs": [],
      "stateMutability": "nonpayable",
      "type": "function"
    },
    {
      "inputs": [
        {
          "internalType": "uint256",
          "name": "tokenId",
          "type": "uint256"
        }
      ],
      "name": "stake",
      "outputs": [],
      "stateMutability": "nonpayable",
      "type": "function"
    },
    {
      "inputs": [
        {
          "internalType": "bytes4",
          "name": "interfaceId",
          "type": "bytes4"
        }
      ],
      "name": "supportsInterface",
      "outputs": [
        {
          "internalType": "bool",
          "name": "",
          "type": "bool"
        }
      ],
      "stateMutability": "view",
      "type": "function"
    },
    {
      "inputs": [],
      "name": "symbol",
      "outputs": [
        {
          "internalType": "string",
          "name": "",
          "type": "string"
        }
      ],
      "stateMutability": "view",
      "type": "function"
    },
    {
      "inputs": [
        {
          "internalType": "uint256",
          "name": "tokenId",
          "type": "uint256"
        }
      ],
      "name": "tokenURI",
      "outputs": [
        {
          "internalType": "string",
          "name": "",
          "type": "string"
        }
      ],
      "stateMutability": "view",
      "type": "function"
    },
    {
      "inputs": [
        {
          "internalType": "address",
          "name": "from",
          "type": "address"
        },
        {
          "internalType": "address",
          "name": "to",
          "type": "address"
        },
        {
          "internalType": "uint256",
          "name": "tokenId",
          "type": "uint256"
        }
      ],
      "name": "transferFrom",
      "outputs": [],
      "stateMutability": "nonpayable",
      "type": "function"
    },
    {
      "inputs": [
        {
          "internalType": "address",
          "name": "newOwner",
          "type": "address"
        }
      ],
      "name": "transferOwnership",
      "outputs": [],
      "stateMutability": "nonpayable",
      "type": "function"
    },
    {
      "inputs": [
        {
          "internalType": "uint256",
          "name": "tokenId",
          "type": "uint256"
        }
      ],
      "name": "unStake",
      "outputs": [],
      "stateMutability": "nonpayable",
      "type": "function"
    },
    {
      "inputs": [
        {
          "internalType": "uint256",
          "name": "tokenId",
          "type": "uint256"
        }
      ],
      "name": "use",
      "outputs": [],
      "stateMutability": "nonpayable",
      "type": "function"
    }
  ],
  "bytecode": "0x60806040523480156200001157600080fd5b5060405162002b5838038062002b588339810160408190526200003491620002c2565b604080518082018252600881526726b7b7aa37b5b2b760c11b6020808301918252835180850190945260038452624d6f6f60e81b9084015281519192916200007f9160009162000206565b5080516200009590600190602084019062000206565b505050620000b2620000ac620000fc60201b60201c565b62000100565b620000de7f9f2df0fed2c77648de5860a4cc508cd0818c85b8b8a1ab4ceeef8d981c8956a68362000152565b8051620000f390600990602084019062000206565b505050620003fe565b3390565b600880546001600160a01b038381166001600160a01b0319831681179093556040519116919082907f8be0079c531659141344cd1fd0a4f28419497f9722a3daafe3b4186f6b6457e090600090a35050565b6200015e828262000162565b5050565b60008281526007602090815260408083206001600160a01b038516845290915290205460ff166200015e5760008281526007602090815260408083206001600160a01b03851684529091529020805460ff19166001179055620001c23390565b6001600160a01b0316816001600160a01b0316837f2f8788117e7eff1d82e926ec794901d17c78024a50270940304540a733656f0d60405160405180910390a45050565b8280546200021490620003c2565b90600052602060002090601f01602090048101928262000238576000855562000283565b82601f106200025357805160ff191683800117855562000283565b8280016001018555821562000283579182015b828111156200028357825182559160200191906001019062000266565b506200029192915062000295565b5090565b5b8082111562000291576000815560010162000296565b634e487b7160e01b600052604160045260246000fd5b60008060408385031215620002d657600080fd5b82516001600160a01b0381168114620002ee57600080fd5b602084810151919350906001600160401b03808211156200030e57600080fd5b818601915086601f8301126200032357600080fd5b815181811115620003385762000338620002ac565b604051601f8201601f19908116603f01168101908382118183101715620003635762000363620002ac565b8160405282815289868487010111156200037c57600080fd5b600093505b82841015620003a0578484018601518185018701529285019262000381565b82841115620003b25760008684830101525b8096505050505050509250929050565b600181811c90821680620003d757607f821691505b602082108103620003f857634e487b7160e01b600052602260045260246000fd5b50919050565b61274a806200040e6000396000f3fe608060405234801561001057600080fd5b50600436106101e55760003560e01c8063715018a61161010f578063b88d4fde116100a2578063d539139311610071578063d539139314610453578063d547741f1461047a578063e985e9c51461048d578063f2fde38b146104c957600080fd5b8063b88d4fde146103e2578063c87b56dd146103f5578063cfd4766314610408578063d3fc98641461044057600080fd5b8063a217fddf116100de578063a217fddf146103a1578063a22cb465146103a9578063a694fc3a146103bc578063ab5b4456146103cf57600080fd5b8063715018a61461036d5780638da5cb5b1461037557806391d148541461038657806395d89b411461039957600080fd5b80632b04e840116101875780635618923611610156578063561892361461032c5780635d3eea91146103345780636352211e1461034757806370a082311461035a57600080fd5b80632b04e840146102e05780632f2ff15d146102f357806336568abe1461030657806342842e0e1461031957600080fd5b8063081812fc116101c3578063081812fc1461026a578063095ea7b31461029557806323b872dd146102aa578063248a9ca3146102bd57600080fd5b806301ffc9a7146101ea57806302e792671461021257806306fdde0314610255575b600080fd5b6101fd6101f8366004611efa565b6104dc565b60405190151581526020015b60405180910390f35b610247610220366004611f2e565b6000908152600c602090815260408083206001600160a01b03949094168352929052205490565b604051908152602001610209565b61025d6104ed565b6040516102099190611fb0565b61027d610278366004611fc3565b61057f565b6040516001600160a01b039091168152602001610209565b6102a86102a3366004611f2e565b61060c565b005b6102a86102b8366004611fdc565b610721565b6102476102cb366004611fc3565b60009081526007602052604090206001015490565b6102476102ee366004611f2e565b610752565b6102a8610301366004612018565b61079a565b6102a8610314366004612018565b6107bf565b6102a8610327366004611fdc565b61083d565b610247610858565b6102a8610342366004611fc3565b610868565b61027d610355366004611fc3565b6108cf565b610247610368366004612044565b610946565b6102a86109cd565b6008546001600160a01b031661027d565b6101fd610394366004612018565b610a03565b61025d610a2e565b610247600081565b6102a86103b736600461205f565b610a3d565b6102a86103ca366004611fc3565b610a48565b6102a86103dd366004611fc3565b610acc565b6102a86103f0366004612127565b610c05565b61025d610403366004611fc3565b610c3d565b6101fd610416366004611f2e565b6000908152600d602090815260408083206001600160a01b03949094168352929052205460ff1690565b6102a861044e3660046121a3565b610db3565b6102477f9f2df0fed2c77648de5860a4cc508cd0818c85b8b8a1ab4ceeef8d981c8956a681565b6102a8610488366004612018565b610f77565b6101fd61049b36600461220e565b6001600160a01b03918216600090815260056020908152604080832093909416825291909152205460ff1690565b6102a86104d7366004612044565b610f9c565b60006104e782611037565b92915050565b6060600080546104fc90612238565b80601f016020809104026020016040519081016040528092919081815260200182805461052890612238565b80156105755780601f1061054a57610100808354040283529160200191610575565b820191906000526020600020905b81548152906001019060200180831161055857829003601f168201915b5050505050905090565b600061058a8261105c565b6105f05760405162461bcd60e51b815260206004820152602c60248201527f4552433732313a20617070726f76656420717565727920666f72206e6f6e657860448201526b34b9ba32b73a103a37b5b2b760a11b60648201526084015b60405180910390fd5b506000908152600460205260409020546001600160a01b031690565b6000610617826108cf565b9050806001600160a01b0316836001600160a01b0316036106845760405162461bcd60e51b815260206004820152602160248201527f4552433732313a20617070726f76616c20746f2063757272656e74206f776e656044820152603960f91b60648201526084016105e7565b336001600160a01b03821614806106a057506106a0813361049b565b6107125760405162461bcd60e51b815260206004820152603860248201527f4552433732313a20617070726f76652063616c6c6572206973206e6f74206f7760448201527f6e6572206e6f7220617070726f76656420666f7220616c6c000000000000000060648201526084016105e7565b61071c8383611079565b505050565b61072b33826110e7565b6107475760405162461bcd60e51b81526004016105e790612272565b61071c8383836111d0565b6000818152600c602090815260408083206001600160a01b03861680855290835281842054858552600b8452828520918552925282205461079391906122d9565b9392505050565b6000828152600760205260409020600101546107b58161136c565b61071c8383611376565b6001600160a01b038116331461082f5760405162461bcd60e51b815260206004820152602f60248201527f416363657373436f6e74726f6c3a2063616e206f6e6c792072656e6f756e636560448201526e103937b632b9903337b91039b2b63360891b60648201526084016105e7565b61083982826113fc565b5050565b61071c83838360405180602001604052806000815250610c05565b6000610863600a5490565b905090565b6008546001600160a01b031633146108925760405162461bcd60e51b81526004016105e7906122f0565b60408051338152602081018390527f28e98ecfde1bcc4d03edacecfb682fa0b7a3b24c633fed87ee0a9b4501a61d5a91015b60405180910390a150565b6000818152600260205260408120546001600160a01b0316806104e75760405162461bcd60e51b815260206004820152602960248201527f4552433732313a206f776e657220717565727920666f72206e6f6e657869737460448201526832b73a103a37b5b2b760b91b60648201526084016105e7565b60006001600160a01b0382166109b15760405162461bcd60e51b815260206004820152602a60248201527f4552433732313a2062616c616e636520717565727920666f7220746865207a65604482015269726f206164647265737360b01b60648201526084016105e7565b506001600160a01b031660009081526003602052604090205490565b6008546001600160a01b031633146109f75760405162461bcd60e51b81526004016105e7906122f0565b610a016000611463565b565b60009182526007602090815260408084206001600160a01b0393909316845291905290205460ff1690565b6060600180546104fc90612238565b6108393383836114b5565b6008546001600160a01b03163314610a725760405162461bcd60e51b81526004016105e7906122f0565b6000818152600d602090815260408083203380855290835292819020805460ff1916600117905580519283529082018390527f1fdab8a8457aaf782e4b6217d6ffa6f5006eda7e50922dd092b2e1524275d77491016108c4565b6008546001600160a01b03163314610af65760405162461bcd60e51b81526004016105e7906122f0565b6000818152600c60209081526040808320338452909152902054610b1b906001612325565b6000828152600b602090815260408083203384529091529020541015610b9a5760405162461bcd60e51b815260206004820152602e60248201527f4d6f6f546f6b656e3a204e6f7420656e6f7567682062616c616e636520746f2060448201526d75736520666f72204576656e747360901b60648201526084016105e7565b6000818152600c602090815260408083203384529091528120805491610bbf8361233d565b909155505060408051338152602081018390526001918101919091527ff073b4f87e3ff1bcc19837c018480491115f65669a30fb8935e9d159df9a823b906060016108c4565b610c0f33836110e7565b610c2b5760405162461bcd60e51b81526004016105e790612272565b610c3784848484611583565b50505050565b6060610c488261105c565b610cae5760405162461bcd60e51b815260206004820152603160248201527f45524337323155524953746f726167653a2055524920717565727920666f72206044820152703737b732bc34b9ba32b73a103a37b5b2b760791b60648201526084016105e7565b60008281526006602052604081208054610cc790612238565b80601f0160208091040260200160405190810160405280929190818152602001828054610cf390612238565b8015610d405780601f10610d1557610100808354040283529160200191610d40565b820191906000526020600020905b815481529060010190602001808311610d2357829003601f168201915b505050505090506000610d5e60408051602081019091526000815290565b90508051600003610d70575092915050565b815115610da2578082604051602001610d8a929190612356565b60405160208183030381529060405292505050919050565b610dab846115b6565b949350505050565b610ddd7f9f2df0fed2c77648de5860a4cc508cd0818c85b8b8a1ab4ceeef8d981c8956a633610a03565b610e225760405162461bcd60e51b815260206004820152601660248201527521b0b63632b91034b9903737ba10309036b4b73a32b960511b60448201526064016105e7565b610e30600a80546001019055565b6000610e3b600a5490565b9050610e47848261168d565b6000610eee610ee860098054610e5c90612238565b80601f0160208091040260200160405190810160405280929190818152602001828054610e8890612238565b8015610ed55780601f10610eaa57610100808354040283529160200191610ed5565b820191906000526020600020905b815481529060010190602001808311610eb857829003601f168201915b5050505050610ee3336117c0565b611907565b84611907565b9050610efa8282611933565b6000828152600b6020908152604080832033808552908352818420889055858452600d835281842090845290915290819020805460ff19169055517ffd8041fd7e4d7047a13bde415402e7278ad32792f9bdf46102a274181893cc9490610f68908790859088908690612385565b60405180910390a15050505050565b600082815260076020526040902060010154610f928161136c565b61071c83836113fc565b6008546001600160a01b03163314610fc65760405162461bcd60e51b81526004016105e7906122f0565b6001600160a01b03811661102b5760405162461bcd60e51b815260206004820152602660248201527f4f776e61626c653a206e6577206f776e657220697320746865207a65726f206160448201526564647265737360d01b60648201526084016105e7565b61103481611463565b50565b60006001600160e01b03198216637965db0b60e01b14806104e757506104e7826119be565b6000908152600260205260409020546001600160a01b0316151590565b600081815260046020526040902080546001600160a01b0319166001600160a01b03841690811790915581906110ae826108cf565b6001600160a01b03167f8c5be1e5ebec7d5bd14f71427d1e84f3dd0314c0f7b2291e5b200ac8c7c3b92560405160405180910390a45050565b60006110f28261105c565b6111535760405162461bcd60e51b815260206004820152602c60248201527f4552433732313a206f70657261746f7220717565727920666f72206e6f6e657860448201526b34b9ba32b73a103a37b5b2b760a11b60648201526084016105e7565b600061115e836108cf565b9050806001600160a01b0316846001600160a01b031614806111a557506001600160a01b0380821660009081526005602090815260408083209388168352929052205460ff165b80610dab5750836001600160a01b03166111be8461057f565b6001600160a01b031614949350505050565b826001600160a01b03166111e3826108cf565b6001600160a01b0316146112475760405162461bcd60e51b815260206004820152602560248201527f4552433732313a207472616e736665722066726f6d20696e636f72726563742060448201526437bbb732b960d91b60648201526084016105e7565b6001600160a01b0382166112a95760405162461bcd60e51b8152602060048201526024808201527f4552433732313a207472616e7366657220746f20746865207a65726f206164646044820152637265737360e01b60648201526084016105e7565b6112b4600082611079565b6001600160a01b03831660009081526003602052604081208054600192906112dd9084906122d9565b90915550506001600160a01b038216600090815260036020526040812080546001929061130b908490612325565b909155505060008181526002602052604080822080546001600160a01b0319166001600160a01b0386811691821790925591518493918716917fddf252ad1be2c89b69c2b068fc378daa952ba7f163c4a11628f55a4df523b3ef91a4505050565b6110348133611a0e565b6113808282610a03565b6108395760008281526007602090815260408083206001600160a01b03851684529091529020805460ff191660011790556113b83390565b6001600160a01b0316816001600160a01b0316837f2f8788117e7eff1d82e926ec794901d17c78024a50270940304540a733656f0d60405160405180910390a45050565b6114068282610a03565b156108395760008281526007602090815260408083206001600160a01b0385168085529252808320805460ff1916905551339285917ff6391f5c32d9c69d2a47ea670b442974b53935d1edc7fd64eb21e047a839171b9190a45050565b600880546001600160a01b038381166001600160a01b0319831681179093556040519116919082907f8be0079c531659141344cd1fd0a4f28419497f9722a3daafe3b4186f6b6457e090600090a35050565b816001600160a01b0316836001600160a01b0316036115165760405162461bcd60e51b815260206004820152601960248201527f4552433732313a20617070726f766520746f2063616c6c65720000000000000060448201526064016105e7565b6001600160a01b03838116600081815260056020908152604080832094871680845294825291829020805460ff191686151590811790915591519182527f17307eab39ab6107e8899845ad3d59bd9653f200f220920489ca2b5937696c31910160405180910390a3505050565b61158e8484846111d0565b61159a84848484611a72565b610c375760405162461bcd60e51b81526004016105e7906123bc565b60606115c18261105c565b6116255760405162461bcd60e51b815260206004820152602f60248201527f4552433732314d657461646174613a2055524920717565727920666f72206e6f60448201526e3732bc34b9ba32b73a103a37b5b2b760891b60648201526084016105e7565b600061163c60408051602081019091526000815290565b9050600081511161165c5760405180602001604052806000815250610793565b8061166684611b73565b604051602001611677929190612356565b6040516020818303038152906040529392505050565b6001600160a01b0382166116e35760405162461bcd60e51b815260206004820181905260248201527f4552433732313a206d696e7420746f20746865207a65726f206164647265737360448201526064016105e7565b6116ec8161105c565b156117395760405162461bcd60e51b815260206004820152601c60248201527f4552433732313a20746f6b656e20616c7265616479206d696e7465640000000060448201526064016105e7565b6001600160a01b0382166000908152600360205260408120805460019290611762908490612325565b909155505060008181526002602052604080822080546001600160a01b0319166001600160a01b03861690811790915590518392907fddf252ad1be2c89b69c2b068fc378daa952ba7f163c4a11628f55a4df523b3ef908290a45050565b60408051602880825260608281019093526000919060208201818036833701905050905060005b60148110156119005760006117fd8260136122d9565b61180890600861240e565b611813906002612511565b611826906001600160a01b038716612533565b60f81b9050600060108260f81c61183d9190612547565b60f81b905060008160f81c60106118549190612569565b8360f81c611862919061258a565b60f81b905061187082611c74565b8561187c86600261240e565b8151811061188c5761188c6125ad565b60200101906001600160f81b031916908160001a9053506118ac81611c74565b856118b886600261240e565b6118c3906001612325565b815181106118d3576118d36125ad565b60200101906001600160f81b031916908160001a90535050505080806118f89061233d565b9150506117e7565b5092915050565b6060828260405160200161191c9291906125c3565b604051602081830303815290604052905092915050565b61193c8261105c565b61199f5760405162461bcd60e51b815260206004820152602e60248201527f45524337323155524953746f726167653a2055524920736574206f66206e6f6e60448201526d32bc34b9ba32b73a103a37b5b2b760911b60648201526084016105e7565b6000828152600660209081526040909120825161071c92840190611e4b565b60006001600160e01b031982166380ac58cd60e01b14806119ef57506001600160e01b03198216635b5e139f60e01b145b806104e757506301ffc9a760e01b6001600160e01b03198316146104e7565b611a188282610a03565b61083957611a30816001600160a01b03166014611caf565b611a3b836020611caf565b604051602001611a4c9291906125ff565b60408051601f198184030181529082905262461bcd60e51b82526105e791600401611fb0565b60006001600160a01b0384163b15611b6857604051630a85bd0160e11b81526001600160a01b0385169063150b7a0290611ab6903390899088908890600401612674565b6020604051808303816000875af1925050508015611af1575060408051601f3d908101601f19168201909252611aee918101906126a7565b60015b611b4e573d808015611b1f576040519150601f19603f3d011682016040523d82523d6000602084013e611b24565b606091505b508051600003611b465760405162461bcd60e51b81526004016105e7906123bc565b805181602001fd5b6001600160e01b031916630a85bd0160e11b149050610dab565b506001949350505050565b606081600003611b9a5750506040805180820190915260018152600360fc1b602082015290565b8160005b8115611bc45780611bae8161233d565b9150611bbd9050600a83612533565b9150611b9e565b60008167ffffffffffffffff811115611bdf57611bdf61209b565b6040519080825280601f01601f191660200182016040528015611c09576020820181803683370190505b5090505b8415610dab57611c1e6001836122d9565b9150611c2b600a866126c4565b611c36906030612325565b60f81b818381518110611c4b57611c4b6125ad565b60200101906001600160f81b031916908160001a905350611c6d600a86612533565b9450611c0d565b6000600a60f883901c1015611c9b57611c9260f883901c60306126d8565b60f81b92915050565b611c9260f883901c60576126d8565b919050565b60606000611cbe83600261240e565b611cc9906002612325565b67ffffffffffffffff811115611ce157611ce161209b565b6040519080825280601f01601f191660200182016040528015611d0b576020820181803683370190505b509050600360fc1b81600081518110611d2657611d266125ad565b60200101906001600160f81b031916908160001a905350600f60fb1b81600181518110611d5557611d556125ad565b60200101906001600160f81b031916908160001a9053506000611d7984600261240e565b611d84906001612325565b90505b6001811115611dfc576f181899199a1a9b1b9c1cb0b131b232b360811b85600f1660108110611db857611db86125ad565b1a60f81b828281518110611dce57611dce6125ad565b60200101906001600160f81b031916908160001a90535060049490941c93611df5816126fd565b9050611d87565b5083156107935760405162461bcd60e51b815260206004820181905260248201527f537472696e67733a20686578206c656e67746820696e73756666696369656e7460448201526064016105e7565b828054611e5790612238565b90600052602060002090601f016020900481019282611e795760008555611ebf565b82601f10611e9257805160ff1916838001178555611ebf565b82800160010185558215611ebf579182015b82811115611ebf578251825591602001919060010190611ea4565b50611ecb929150611ecf565b5090565b5b80821115611ecb5760008155600101611ed0565b6001600160e01b03198116811461103457600080fd5b600060208284031215611f0c57600080fd5b813561079381611ee4565b80356001600160a01b0381168114611caa57600080fd5b60008060408385031215611f4157600080fd5b611f4a83611f17565b946020939093013593505050565b60005b83811015611f73578181015183820152602001611f5b565b83811115610c375750506000910152565b60008151808452611f9c816020860160208601611f58565b601f01601f19169290920160200192915050565b6020815260006107936020830184611f84565b600060208284031215611fd557600080fd5b5035919050565b600080600060608486031215611ff157600080fd5b611ffa84611f17565b925061200860208501611f17565b9150604084013590509250925092565b6000806040838503121561202b57600080fd5b8235915061203b60208401611f17565b90509250929050565b60006020828403121561205657600080fd5b61079382611f17565b6000806040838503121561207257600080fd5b61207b83611f17565b91506020830135801515811461209057600080fd5b809150509250929050565b634e487b7160e01b600052604160045260246000fd5b600067ffffffffffffffff808411156120cc576120cc61209b565b604051601f8501601f19908116603f011681019082821181831017156120f4576120f461209b565b8160405280935085815286868601111561210d57600080fd5b858560208301376000602087830101525050509392505050565b6000806000806080858703121561213d57600080fd5b61214685611f17565b935061215460208601611f17565b925060408501359150606085013567ffffffffffffffff81111561217757600080fd5b8501601f8101871361218857600080fd5b612197878235602084016120b1565b91505092959194509250565b6000806000606084860312156121b857600080fd5b6121c184611f17565b925060208401359150604084013567ffffffffffffffff8111156121e457600080fd5b8401601f810186136121f557600080fd5b612204868235602084016120b1565b9150509250925092565b6000806040838503121561222157600080fd5b61222a83611f17565b915061203b60208401611f17565b600181811c9082168061224c57607f821691505b60208210810361226c57634e487b7160e01b600052602260045260246000fd5b50919050565b60208082526031908201527f4552433732313a207472616e736665722063616c6c6572206973206e6f74206f6040820152701ddb995c881b9bdc88185c1c1c9bdd9959607a1b606082015260800190565b634e487b7160e01b600052601160045260246000fd5b6000828210156122eb576122eb6122c3565b500390565b6020808252818101527f4f776e61626c653a2063616c6c6572206973206e6f7420746865206f776e6572604082015260600190565b60008219821115612338576123386122c3565b500190565b60006001820161234f5761234f6122c3565b5060010190565b60008351612368818460208801611f58565b83519083019061237c818360208801611f58565b01949350505050565b60018060a01b03851681528360208201528260408201526080606082015260006123b26080830184611f84565b9695505050505050565b60208082526032908201527f4552433732313a207472616e7366657220746f206e6f6e20455243373231526560408201527131b2b4bb32b91034b6b83632b6b2b73a32b960711b606082015260800190565b6000816000190483118215151615612428576124286122c3565b500290565b600181815b8085111561246857816000190482111561244e5761244e6122c3565b8085161561245b57918102915b93841c9390800290612432565b509250929050565b60008261247f575060016104e7565b8161248c575060006104e7565b81600181146124a257600281146124ac576124c8565b60019150506104e7565b60ff8411156124bd576124bd6122c3565b50506001821b6104e7565b5060208310610133831016604e8410600b84101617156124eb575081810a6104e7565b6124f5838361242d565b8060001904821115612509576125096122c3565b029392505050565b60006107938383612470565b634e487b7160e01b600052601260045260246000fd5b6000826125425761254261251d565b500490565b600060ff83168061255a5761255a61251d565b8060ff84160491505092915050565b600060ff821660ff84168160ff0481118215151615612509576125096122c3565b600060ff821660ff8416808210156125a4576125a46122c3565b90039392505050565b634e487b7160e01b600052603260045260246000fd5b600083516125d5818460208801611f58565b602f60f81b90830190815283516125f3816001840160208801611f58565b01600101949350505050565b7f416363657373436f6e74726f6c3a206163636f756e7420000000000000000000815260008351612637816017850160208801611f58565b7001034b99036b4b9b9b4b733903937b6329607d1b6017918401918201528351612668816028840160208801611f58565b01602801949350505050565b6001600160a01b03858116825284166020820152604081018390526080606082018190526000906123b290830184611f84565b6000602082840312156126b957600080fd5b815161079381611ee4565b6000826126d3576126d361251d565b500690565b600060ff821660ff84168060ff038211156126f5576126f56122c3565b019392505050565b60008161270c5761270c6122c3565b50600019019056fea2646970667358221220fb5b6cc3df01adb10ae53e084e8d547e6e955cc8614ec64104e17f379aeb3dcf64736f6c634300080e0033",
  "linkReferences": {},
  "deployedLinkReferences": {}
}